:100000000C942A000C9447000C9447000C94470071
:100010000C9447000C9447000C94081B0C94AE1AE7
:100020000C94DB1A0C94811A0C94DF1B0C94121C98
:100030000C9447000C9447000C9447000C94470024
:100040000C9447000C9447000C9447000C94470014
:100050000C94470011241FBECFE5D8E0DEBFCDBF12
:1000600012E0A0E6B0E0EEE8FAE302C005900D92DF
:10007000A23AB107D9F713E0A2EAB2E001C01D929B
:10008000A038B107E1F70E94451C0C94451D0C9463
:100090000000EF92FF920F931F937B018C0120E0F1
:1000A00030E040E05FE40E94F50388238CF0C80153
:1000B000B70120E030E040E05FE40E94C1010E940F
:1000C000B3049B01AC01205030404040504806C072
:1000D000C801B7010E94B3049B01AC01B901CA0178
:1000E0001F910F91FF90EF900895A0E0B0E0EBE733
:1000F000F0E00C94FC1CDC012B01FA019C91923085
:1001000008F439C1EB018881823008F433C194309E
:1001100069F4843009F02FC111969C91119789815F
:10012000981709F428C1A1E8B1E025C1843009F489
:1001300021C18230A9F4923009F01DC19A01AD01AC
:1001400088E0EA010990AE01E90109929E0181501F
:10015000C1F7E201898111969C918923818308C1AD
:10016000923009F407C112962D903C901397EB0141
:100170008A819B811496AD90BD90CD90DC901797AD
:10018000EC80FD800E811F819101281B390BB90184
:1001900037FF04C066277727621B730B6032710537
:1001A0000CF061C0121613066CF537014801062EDB
:1001B00004C096948794779467940A94D2F721E0C8
:1001C00030E040E050E004C0220F331F441F551FB1
:1001D0006A95D2F721503040404050402E213F21B7
:1001E00040235123211531054105510521F021E01E
:1001F00030E040E050E079018A01E628F72808293C
:1002000019293CC0232BD1F1260E371E350146019A
:10021000062E04C096948794779467940A94D2F734
:1002200021E030E040E050E004C0220F331F441FC3
:10023000551F6A95D2F721503040404050402A2146
:100240003B214C215D21211531054105510521F04E
:1002500021E030E040E050E059016A01A628B728CB
:10026000C828D9280BC0821593052CF01C01AA249C
:10027000BB24650103C0EE24FF24870111969C91E5
:10028000D20111968C91981709F445C0992339F041
:10029000A80197012A193B094C095D0906C0A6016E
:1002A00095012E193F09400B510B57FD08C01182D3
:1002B0003382228224833583468357831DC081E0A5
:1002C00081833382228288279927DC01821B930B4A
:1002D000A40BB50B84839583A683B7830DC0220F2F
:1002E000331F441F551F24833583468357838281E0
:1002F000938101979383828324813581468157813D
:10030000DA01C9010197A109B1098F5F9F4FAF4F72
:10031000BF4328F30BC0918333822282EA0CFB1C7B
:100320000C1D1D1DE482F5820683178383E0808304
:10033000248135814681578157FF1AC0C901AA27F8
:1003400097FDA095BA2F81709070A070B0705695EF
:10035000479537952795822B932BA42BB52B848318
:100360009583A683B7838281938101969383828349
:10037000DF0101C0D201CD01CDB7DEB7E2E10C94BF
:10038000181DA0E2B0E0E7ECF1E00C94081D6983D1
:100390007A838B839C832D833E834F835887E9E048
:1003A000EE2EF12CEC0EFD1ECE010196B7010E943F
:1003B0002B068E010F5E1F4FCE010596B8010E94DD
:1003C0002B068A8991E089278A8BC701B801AE0183
:1003D000475E5F4F0E9475000E945605A096E6E0BA
:1003E0000C94241DA0E2B0E0E8EFF1E00C94081DAD
:1003F00069837A838B839C832D833E834F835887C5
:10040000F9E0EF2EF12CEC0EFD1ECE010196B701A6
:100410000E942B068E010F5E1F4FCE010596B8017C
:100420000E942B06C701B801AE01475E5F4F0E94D4
:1004300075000E945605A096E6E00C94241DA0E2EB
:10044000B0E0E5E2F2E00C94FC1C69837A838B83D4
:100450009C832D833E834F835887CE010196BE0136
:10046000675F7F4F0E942B06CE010596BE016F5E2F
:100470007F4F0E942B069985923088F089898230BF
:10048000C8F0943019F4823051F404C0843029F457
:10049000923081F481E891E0C6C0923049F420E0C6
:1004A0009A858A89981321E02A87CE010996BBC0D4
:1004B000823049F420E09A858A89981321E02A8BBA
:1004C000CE014196B0C02D843E844F8458886D88FB
:1004D0007E888F88988CEE24FF248701AA24BB2471
:1004E000650140E050E060E070E0E0E0F0E0C10174
:1004F00081709070892BE9F0E60CF71C081D191D1E
:100500009A01AB012A0D3B1D4C1D5D1D80E090E062
:10051000A0E0B0E0E614F7040805190520F481E036
:1005200090E0A0E0B0E0BA01A901480F591F6A1F8E
:100530007B1FAA0CBB1CCC1CDD1C97FE08C081E0F5
:1005400090E0A0E0B0E0A82AB92ACA2ADB2A3196B6
:10055000E032F10549F0660C771C881C991C569412
:10056000479437942794C3CFFA85EA892B893C892D
:100570008B859C85280F391F2E5F3F4F17C0CA01FE
:1005800081709070892B61F016950795F794E79428
:1005900080E090E0A0E0B0E8E82AF92A0A2B1B2BC3
:1005A00076956795579547952F5F3F4F77FDE7CF36
:1005B0000CC0440F551F661F771F17FD4160EE0CDE
:1005C000FF1C001F111F21503040403090E05907A0
:1005D00090E0690790E4790760F32B8F3C8FDB0193
:1005E000CA018F779070A070B07080349105A1051A
:1005F000B10561F447FD0AC0E114F10401051105DC
:1006000029F0405C5F4F6F4F7F4F40781A8EFE1786
:1006100011F081E08A8F4D8F5E8F6F8F78A383E01A
:10062000898FCE0149960E945605A096E2E10C946E
:10063000181DA8E1B0E0EFE1F3E00C94041D69831C
:100640007A838B839C832D833E834F835887B9E0C5
:10065000EB2EF12CEC0EFD1ECE010196B7010E948F
:100660002B068E010F5E1F4FCE010596B8010E942A
:100670002B062985223008F47EC03989323010F4E7
:10068000B8017CC08A859A8989278A87243011F02D
:10069000223031F4231709F06EC061E871E06EC0BA
:1006A000343039F41D861E861F86188A1C861B86E8
:1006B00004C0323021F484E08987B7015FC02B8504
:1006C0003C858B899C89281B390B3C872B87ED84C3
:1006D000FE840F851889AD88BE88CF88D88CEA142F
:1006E000FB040C051D0540F4EE0CFF1C001F111F40
:1006F000215030403C872B8720E030E040E050E044
:1007000080E090E0A0E0B0E460E070E0EA14FB0478
:100710000C051D0540F0282B392B4A2B5B2BEA18C2
:10072000FB080C091D09B695A79597958795EE0CC2
:10073000FF1C001F111F6F5F7F4F6F31710531F775
:10074000DA01C9018F779070A070B0708034910584
:10075000A105B10561F427FD0AC0E114F10401050A
:10076000110529F0205C3F4F4F4F5F4F20782D87B8
:100770003E874F87588BBE01675F7F4FCB010E943A
:1007800056056896EAE00C94201DA8E1B0E0EBEC79
:10079000F3E00C94081D69837A838B839C832D83FB
:1007A0003E834F83588789E0E82EF12CEC0EFD1E26
:1007B000CE010196B7010E942B068E010F5E1F4FDE
:1007C000CE010596B8010E942B068985823040F043
:1007D0008989823028F0C701B8010E94A30601C0B0
:1007E0008FEF6896E6E00C94241DA8E1B0E0EBEFF3
:1007F000F3E00C94081D69837A838B839C832D839B
:100800003E834F83588789E0E82EF12CEC0EFD1EC5
:10081000CE010196B7010E942B068E010F5E1F4F7D
:10082000CE010596B8010E942B068985823040F0E2
:100830008989823028F0C701B8010E94A30601C04F
:100840008FEF6896E6E00C94241DA8E1B0E0EBE29F
:10085000F4E00C94081D69837A838B839C832D8339
:100860003E834F83588789E0E82EF12CEC0EFD1E65
:10087000CE010196B7010E942B068E010F5E1F4F1D
:10088000CE010596B8010E942B068985823040F082
:100890008989823028F0C701B8010E94A30601C0EF
:1008A00081E06896E6E00C94241DA8E0B0E0EBE55A
:1008B000F4E00C94051D9B01AC0183E08983DA010F
:1008C000C9018827B7FD83959927AA27BB27B82E8A
:1008D000211531054105510519F482E089833AC09B
:1008E0008823A9F0203080E0380780E0480780E8BE
:1008F000580729F460E070E080E09FEC30C0EE24FF
:10090000FF248701E21AF30A040B150B02C07901D8
:100910008A018EE1C82ED12CDC82CB82ED82FE8250
:100920000F831887C801B7010E94070501971816A1
:10093000190684F4082E04C0EE0CFF1C001F111FC2
:100940000A94D2F7ED82FE820F831887C81AD90A5B
:10095000DC82CB82BA82CE0101960E94560528968F
:10096000E9E00C94211DACE0B0E0E9EBF4E00C947C
:100970000C1D69837A838B839C83CE010196BE0113
:100980006B5F7F4F0E942B068D81823061F1823038
:1009900050F1843021F48E81882351F12EC02F81B3
:1009A000388537FD20C06E812F3131051CF066235C
:1009B000F9F023C08EE190E0821B930B29853A85E4
:1009C0004B855C8504C056954795379527958A9544
:1009D000D2F76623B1F050954095309521953F4F61
:1009E0004F4F5F4F0EC020E030E040E050E009C0C4
:1009F0002FEF3FEF4FEF5FE704C020E030E040E033
:100A000050E8B901CA012C96E2E00C94281DEF923F
:100A1000FF920F931F937B018C0180E0E81680E02A
:100A2000F80681E0080780E0180788F48FEFE816E1
:100A3000F1040105110531F028F088E090E0A0E014
:100A4000B0E017C080E090E0A0E0B0E012C080E02D
:100A5000E81680E0F80680E0080781E0180728F033
:100A600088E190E0A0E0B0E004C080E190E0A0E088
:100A7000B0E020E230E040E050E0281B390B4A0BA8
:100A80005B0B04C016950795F794E7948A95D2F707
:100A9000F701E757FE4F8081281B310941095109B1
:100AA000C9011F910F91FF90EF900895DF92EF928F
:100AB000FF920F931F93FC01E480F580068117815C
:100AC000D1808081823048F480E090E0A0E1B0E005
:100AD000E82AF92A0A2B1B2BA5C0843009F49FC0F1
:100AE000823021F4EE24FF24870105C0E114F104D3
:100AF0000105110519F4E0E0F0E096C06281738110
:100B00009FEF623879070CF05BC022E83FEF261BAD
:100B1000370B2A3131052CF020E030E040E050E086
:100B20002AC0B801A701022E04C076956795579593
:100B300047950A94D2F781E090E0A0E0B0E004C0CD
:100B4000880F991FAA1FBB1F2A95D2F70197A109E9
:100B5000B1098E219F21A023B1230097A105B105E2
:100B600021F081E090E0A0E0B0E09A01AB01282BF9
:100B7000392B4A2B5B2BDA01C9018F779070A0705B
:100B8000B07080349105A105B10539F427FF09C083
:100B9000205C3F4F4F4F5F4F04C0215C3F4F4F4F92
:100BA0005F4FE0E0F0E02030A0E03A07A0E04A0725
:100BB000A0E45A0710F0E1E0F0E079018A0127C0D3
:100BC0006038710564F5FB01E158FF4FD801C7019A
:100BD0008F779070A070B07080349105A105B10539
:100BE00039F4E7FE0DC080E490E0A0E0B0E004C07E
:100BF0008FE390E0A0E0B0E0E80EF91E0A1F1B1F93
:100C000017FF05C016950795F794E794319687E08E
:100C100016950795F794E7948A95D1F705C0EE24C9
:100C2000FF248701EFEFF0E06E2F67956627679549
:100C3000902F9F77D794DD24D7948E2F8695492FB8
:100C4000462B582F5D29B701CA011F910F91FF90C4
:100C5000EF90DF900895FC01DB01408151812281FA
:100C6000622F6F7770E0221F2227221F9381892F26
:100C7000880F822B282F30E0991F9927991F1196F2
:100C80009C93119721153105A9F541155105610571
:100C9000710511F482E037C082E89FEF13969C93B0
:100CA0008E9312979A01AB0167E0220F331F441F06
:100CB000551F6A95D1F783E08C930DC0220F331F27
:100CC000441F551F12968D919C911397019713966F
:100CD0009C938E931297203080E0380780E048077D
:100CE00080E4580758F314962D933D934D935C93ED
:100CF000179708952F3F310579F441155105610586
:100D0000710519F484E08C93089564FF03C081E0B9
:100D10008C9312C01C9210C02F57304013963C93F6
:100D20002E93129783E08C9387E0440F551F661F24
:100D3000771F8A95D1F7706414964D935D936D93E8
:100D40007C93179708951F93DC01FB019C919230CF
:100D500008F447C08081823008F443C0943051F4D5
:100D600011961C91843099F58181682F70E0611B88
:100D700071093FC0843021F0923031F48230B9F1F2
:100D80008181882389F12DC011961C9111978230A1
:100D9000F1F081811817D9F412962D913C91139797
:100DA000828193818217930794F028173907BCF04A
:100DB00014968D919D910D90BC91A02D248135812B
:100DC00046815781281739074A075B0718F4112312
:100DD00041F00AC082179307A407B50740F4112316
:100DE00019F061E070E005C06FEF7FEF02C060E0D6
:100DF00070E0CB011F910895DF93CF93CDB7DEB79D
:100E000083E060E041E00E94C70CCF91DF9108953C
:100E1000DF93CF93CDB7DEB783E060E041E00E947F
:100E2000C70DCF91DF910895DF93CF93CDB7DEB794
:100E300083E060E040E00E94C70DCF91DF9108950C
:100E4000DF93CF93CDB7DEB72E970FB6F894DEBF02
:100E50000FBECDBF0E94080780E090E4ACE1B6E48D
:100E60008B879C87AD87BE876B857C858D859E85AE
:100E700020E030E04AEF54E40E941F02DC01CB0185
:100E80008F839887A987BA876F81788589859A85A6
:100E900020E030E040E85FE30E94250488232CF442
:100EA00081E090E09E838D833FC06F817885898546
:100EB0009A8520E03FEF4FE757E40E94C5031816DC
:100EC0004CF56B857C858D859E8520E030E040E289
:100ED00051E40E941F02DC01CB01BC01CD010E9444
:100EE0004900DC01CB019E838D830FC088EC90E02C
:100EF0009C838B838B819C810197F1F79C838B83EF
:100F00008D819E8101979E838D838D819E81009727
:100F100069F714C06F81788589859A850E94490098
:100F2000DC01CB019E838D838D819E819A83898391
:100F300089819A810197F1F79A8389830E94140726
:100F40002E960FB6F894DEBF0FBECDBFCF91DF91C6
:100F50000895DF93CF93CDB7DEB72F970FB6F894F0
:100F6000DEBF0FBECDBF8F8781E060E040E00E9412
:100F7000C70D81E061E040E00E94C70D80E06F8511
:100F80000E94860C81E062E041E00E94C70D80E093
:100F900090E0A0E0B0E48B879C87AD87BE876B852F
:100FA0007C858D859E8520E030E04AEF54E40E94E8
:100FB0001F02DC01CB018F839887A987BA876F81D5
:100FC000788589859A8520E030E040E85FE30E94DB
:100FD000250488232CF481E090E09E838D833FC01C
:100FE0006F81788589859A8520E03FEF4FE757E448
:100FF0000E94C50318164CF56B857C858D859E85F2
:1010000020E030E040E251E40E941F02DC01CB010D
:10101000BC01CD010E944900DC01CB019E838D8380
:101020000FC088EC90E09C838B838B819C8101971F
:10103000F1F79C838B838D819E8101979E838D83A5
:101040008D819E81009769F714C06F8178858985AD
:101050009A850E944900DC01CB019E838D838D819E
:101060009E819A83898389819A810197F1F79A8376
:10107000898381E062E040E00E94C70D2F960FB6A1
:10108000F894DEBF0FBECDBFCF91DF910895DF93FF
:10109000CF93CDB7DEB72F970FB6F894DEBF0FBE54
:1010A000CDBF8F8781E060E041E00E94C70D81E005
:1010B00061E040E00E94C70D80E06F850E94860CD1
:1010C00081E062E041E00E94C70D80E090E0A0E096
:1010D000B0E48B879C87AD87BE876B857C858D85CB
:1010E0009E8520E030E04AEF54E40E941F02DC01BC
:1010F000CB018F839887A987BA876F817885898587
:101100009A8520E030E040E85FE30E9425048823D0
:101110002CF481E090E09E838D833FC06F817885C1
:1011200089859A8520E03FEF4FE757E40E94C50389
:1011300018164CF56B857C858D859E8520E030E00A
:1011400040E251E40E941F02DC01CB01BC01CD0151
:101150000E944900DC01CB019E838D830FC088EC87
:1011600090E09C838B838B819C810197F1F79C831A
:101170008B838D819E8101979E838D838D819E813E
:10118000009769F714C06F81788589859A850E94D8
:101190004900DC01CB019E838D838D819E819A83E2
:1011A000898389819A810197F1F79A83898381E004
:1011B00062E040E00E94C70D2F960FB6F894DEBFA4
:1011C0000FBECDBFCF91DF910895DF93CF93CDB701
:1011D000DEB7E8970FB6F894DEBF0FBECDBF80E054
:1011E00090E0A8E4B2E48DAB9EABAFABB8AF6DA915
:1011F0007EA98FA998AD20E030E04AEF54E40E9428
:101200001F02DC01CB0189AB9AABABABBCAB69A9CC
:101210007AA98BA99CA920E030E040E85FE30E9416
:10122000250488232CF481E090E098AB8FA73FC081
:1012300069A97AA98BA99CA920E03FEF4FE757E461
:101240000E94C50318164CF56DA97EA98FA998AD0B
:1012500020E030E040E251E40E941F02DC01CB01BB
:10126000BC01CD010E944900DC01CB0198AB8FA7E6
:101270000FC088EC90E09EA78DA78DA59EA5019735
:10128000F1F79EA78DA78FA598A9019798AB8FA777
:101290008FA598A9009769F714C069A97AA98BA9A5
:1012A0009CA90E944900DC01CB0198AB8FA78FA5B8
:1012B00098A99CA78BA78BA59CA50197F1F79CA744
:1012C0008BA788E30E94A90780E090E0A0E8BFE335
:1012D0008FA398A7A9A7BAA76FA178A589A59AA552
:1012E00020E030E04AEF54E40E941F02DC01CB0111
:1012F0008BA39CA3ADA3BEA36BA17CA18DA19EA13A
:1013000020E030E040E85FE30E94250488232CF4CD
:1013100081E090E09AA389A33FC06BA17CA18DA13D
:101320009EA120E03FEF4FE757E40E94C503181647
:101330004CF56FA178A589A59AA520E030E040E2A0
:1013400051E40E941F02DC01CB01BC01CD010E94CF
:101350004900DC01CB019AA389A30FC088EC90E07F
:1013600098A38F8F8F8D98A10197F1F798A38F8FF6
:1013700089A19AA101979AA389A389A19AA100970B
:1013800069F714C06BA17CA18DA19EA10E944900A8
:10139000DC01CB019AA389A389A19AA19E8F8D8F8D
:1013A0008D8D9E8D0197F1F79E8F8D8F8CE00E9421
:1013B000A90780E090E0A0E8BFE3898F9A8FAB8F08
:1013C000BC8F698D7A8D8B8D9C8D20E030E04AEF4B
:1013D00054E40E941F02DC01CB018D8B9E8BAF8BEE
:1013E000B88F6D897E898F89988D20E030E040E844
:1013F0005FE30E94250488232CF481E090E09C8B1D
:101400008B8B3FC06D897E898F89988D20E03FEF5F
:101410004FE757E40E94C50318164CF5698D7A8D85
:101420008B8D9C8D20E030E040E251E40E941F0251
:10143000DC01CB01BC01CD010E944900DC01CB01E4
:101440009C8B8B8B0FC088EC90E09A8B898B898961
:101450009A890197F1F79A8B898B8B899C890197DF
:101460009C8B8B8B8B899C89009769F714C06D8945
:101470007E898F89988D0E944900DC01CB019C8B6D
:101480008B8B8B899C89988B8F878F859889019707
:10149000F1F7988B8F8781E00E94A90780E090E0A8
:1014A000A0E8BFE38B879C87AD87BE876B857C8573
:1014B0008D859E8520E030E04AEF54E40E941F02B3
:1014C000DC01CB018F839887A987BA876F817885E4
:1014D00089859A8520E030E040E85FE30E9425049A
:1014E00088232CF481E090E09E838D833FC06F8140
:1014F000788589859A8520E03FEF4FE757E40E9481
:10150000C50318164CF56B857C858D859E8520E07E
:1015100030E040E251E40E941F02DC01CB01BC013B
:10152000CD010E944900DC01CB019E838D830FC059
:1015300088EC90E09C838B838B819C810197F1F7F1
:101540009C838B838D819E8101979E838D838D816A
:101550009E81009769F714C06F81788589859A8587
:101560000E944900DC01CB019E838D838D819E8189
:101570009A83898389819A810197F1F79A83898374
:10158000E8960FB6F894DEBF0FBECDBFCF91DF91C6
:101590000895DF93CF9300D00F92CDB7DEB79B8332
:1015A0008A8319820EC08981282F30E08A819B812D
:1015B000FC01E20FF31F80810E94470889818F5F41
:1015C00089838981282F30E08A819B81FC01E20F89
:1015D000F31F8081882339F70F900F900F90CF91E0
:1015E000DF910895DF93CF9300D00F92CDB7DEB790
:1015F0008A836B838FEF89838A81823010F081E048
:101600008A838A81882F90E0029600249695879598
:101610000794969587950794982F802D982F8B8106
:10162000890F898389810E94A9070F900F900F90DD
:10163000CF91DF910895DF93CF93CDB7DEB72F978A
:101640000FB6F894DEBF0FBECDBF6E837F83888751
:1016500099874A872B871D828E819F81A885B985AE
:1016600089839A83AB83BC838E819F81A885B9854A
:101670000097A105B105E9F48A856B850E94F20AFD
:1016800080E30E944708EEC089819A81AB81BC81CA
:101690002AE030E040E050E0BC01CD010E94DA1CBD
:1016A000DA01C90189839A83AB83BC838D818F5F03
:1016B0008D8389819A81AB81BC810097A105B10599
:1016C00019F7CCC09B858D81890F982F91508A8501
:1016D000692F0E94F20A8E819F81A885B9852AE030
:1016E00030E040E050E0BC01CD010E94DA1CDC019A
:1016F000CB018C879D87AE87BF878C859D85AE8506
:10170000BF8584309105A105B10509F47BC08C85A6
:101710009D85AE85BF8585309105A105B10548F54C
:101720008C859D85AE85BF8581309105A105B1056C
:1017300009F45CC08C859D85AE85BF85813091059F
:10174000A105B10508F44EC08C859D85AE85BF8589
:1017500082309105A105B10509F44CC08C859D85A9
:10176000AE85BF8583309105A105B10509F446C05A
:1017700060C08C859D85AE85BF8587309105A105AC
:10178000B10509F44BC08C859D85AE85BF85883039
:101790009105A105B10598F48C859D85AE85BF8521
:1017A00085309105A105B10589F18C859D85AE85B2
:1017B000BF8586309105A105B10561F13AC08C85E0
:1017C0009D85AE85BF8588309105A105B10551F194
:1017D0008C859D85AE85BF8589309105A105B105B4
:1017E00029F127C080E30E94470823C081E30E94BB
:1017F00047081FC082E30E9447081BC083E30E9482
:10180000470817C084E30E94470813C085E30E947D
:1018100047080FC086E30E9447080BC087E30E9479
:10182000470807C088E30E94470803C089E30E9475
:1018300047088E819F81A885B9852AE030E040E085
:1018400050E0BC01CD010E94DA1CDA01C9018E838F
:101850009F83A887B9878D8181508D838D8188234F
:1018600009F030CF2F960FB6F894DEBF0FBECDBF74
:10187000CF91DF910895DF93CF93CDB7DEB781E0AD
:101880000E94A907CF91DF910895DF93CF9300D0F5
:1018900000D0CDB7DEB789836A838981282F30E0F5
:1018A0003C832B838B819C8181309105D1F02B81EE
:1018B0003C81223031052CF48B819C81009761F0B2
:1018C0001EC02B813C812230310581F08B819C81AF
:1018D0008330910581F013C0EAE3F0E08A818083D0
:1018E0000EC0E7E3F0E08A81808309C0E4E3F0E022
:1018F0008A81808304C0E1E3F0E08A8180830F90D5
:101900000F900F900F90CF91DF910895DF93CF93B9
:1019100000D000D0CDB7DEB789836A838981282FB4
:1019200030E03C832B838B819C8181309105D1F009
:101930002B813C81223031052CF48B819C810097D6
:1019400061F01EC02B813C812230310581F08B81FA
:101950009C818330910581F013C0EBE3F0E08A8134
:1019600080830EC0E8E3F0E08A81808309C0E5E36C
:10197000F0E08A81808304C0E2E3F0E08A81808322
:101980000F900F900F900F90CF91DF910895DF93FC
:10199000CF93CDB7DEB727970FB6F894DEBF0FBE53
:1019A000CDBF89836A834B838B81813009F06FC0FF
:1019B0008981282F30E03F832E838E819F81813063
:1019C000910549F12E813F81223031052CF48E8121
:1019D0009F81009761F0D2C02E813F812230310576
:1019E00071F18E819F8183309105E9F1C7C0AAE32F
:1019F000B0E0EAE3F0E08081482F8A81282F30E0D0
:101A000081E090E0022E02C0880F991F0A94E2F74D
:101A1000842B8C93B3C0A7E3B0E0E7E3F0E08081D0
:101A2000482F8A81282F30E081E090E0022E02C00A
:101A3000880F991F0A94E2F7842B8C939FC0A4E32C
:101A4000B0E0E4E3F0E08081482F8A81282F30E085
:101A500081E090E0022E02C0880F991F0A94E2F7FD
:101A6000842B8C938BC0A1E3B0E0E1E3F0E08081B4
:101A7000482F8A81282F30E081E090E0022E02C0BA
:101A8000880F991F0A94E2F7842B8C9377C08B817F
:101A9000882309F073C08981282F30E03D832C838F
:101AA0008C819D818130910559F12C813D812230BD
:101AB00031052CF48C819D81009769F05FC02C81E9
:101AC0003D812230310589F18C819D8183309105E2
:101AD00009F440C053C0AAE3B0E0EAE3F0E080813B
:101AE000482F8A81282F30E081E090E0022E02C04A
:101AF000880F991F0A94E2F7809584238C933EC047
:101B0000A7E3B0E0E7E3F0E08081482F8A81282F47
:101B100030E081E090E0022E02C0880F991F0A9405
:101B2000E2F7809584238C9329C0A4E3B0E0E4E33A
:101B3000F0E08081482F8A81282F30E081E090E01A
:101B4000022E02C0880F991F0A94E2F78095842321
:101B50008C9314C0A1E3B0E0E1E3F0E08081482F72
:101B60008A81282F30E081E090E0022E02C0880FA9
:101B7000991F0A94E2F7809584238C9327960FB6D9
:101B8000F894DEBF0FBECDBFCF91DF910895DF93F4
:101B9000CF93CDB7DEB727970FB6F894DEBF0FBE51
:101BA000CDBF89836A834B838B81813009F06FC0FD
:101BB0008981282F30E03F832E838E819F81813061
:101BC000910549F12E813F81223031052CF48E811F
:101BD0009F81009761F0D2C02E813F812230310574
:101BE00071F18E819F8183309105E9F1C7C0ABE32C
:101BF000B0E0EBE3F0E08081482F8A81282F30E0CD
:101C000081E090E0022E02C0880F991F0A94E2F74B
:101C1000842B8C93B3C0A8E3B0E0E8E3F0E08081CC
:101C2000482F8A81282F30E081E090E0022E02C008
:101C3000880F991F0A94E2F7842B8C939FC0A5E329
:101C4000B0E0E5E3F0E08081482F8A81282F30E082
:101C500081E090E0022E02C0880F991F0A94E2F7FB
:101C6000842B8C938BC0A2E3B0E0E2E3F0E08081B0
:101C7000482F8A81282F30E081E090E0022E02C0B8
:101C8000880F991F0A94E2F7842B8C9377C08B817D
:101C9000882309F073C08981282F30E03D832C838D
:101CA0008C819D818130910559F12C813D812230BB
:101CB00031052CF48C819D81009769F05FC02C81E7
:101CC0003D812230310589F18C819D8183309105E0
:101CD00009F440C053C0ABE3B0E0EBE3F0E0808137
:101CE000482F8A81282F30E081E090E0022E02C048
:101CF000880F991F0A94E2F7809584238C933EC045
:101D0000A8E3B0E0E8E3F0E08081482F8A81282F43
:101D100030E081E090E0022E02C0880F991F0A9403
:101D2000E2F7809584238C9329C0A5E3B0E0E5E336
:101D3000F0E08081482F8A81282F30E081E090E018
:101D4000022E02C0880F991F0A94E2F7809584231F
:101D50008C9314C0A2E3B0E0E2E3F0E08081482F6E
:101D60008A81282F30E081E090E0022E02C0880FA7
:101D7000991F0A94E2F7809584238C9327960FB6D7
:101D8000F894DEBF0FBECDBFCF91DF910895DF93F2
:101D9000CF9300D000D00F92CDB7DEB78A836B838C
:101DA00019828A81282F30E03D832C834C815D810C
:101DB0004130510541F18C819D818230910534F48F
:101DC0002C813D812115310561F052C04C815D812E
:101DD0004230510551F18C819D8183309105B9F1DB
:101DE00047C0E9E3F0E08081282F30E08B81882F25
:101DF00090E0A90102C0559547958A95E2F7CA017E
:101E00008170898335C0E6E3F0E08081282F30E0DF
:101E10008B81882F90E0A90102C0559547958A953E
:101E2000E2F7CA018170898323C0E3E3F0E0808197
:101E3000282F30E08B81882F90E0A90102C05595B2
:101E400047958A95E2F7CA018170898311C0E0E362
:101E5000F0E08081282F30E08B81882F90E0A9016D
:101E600002C0559547958A95E2F7CA01817089832A
:101E700089810F900F900F900F900F90CF91DF916D
:101E80000895DF93CF9300D000D000D0CDB7DEB758
:101E900089836A835C834B838981282F30E03E836A
:101EA0002D834D815E814130510559F18D819E8197
:101EB0008230910534F42D813E812115310569F080
:101EC0005BC04D815E814230510579F18D819E81EB
:101ED0008330910509F43DC04FC0E9E3F0E0808113
:101EE000282F30E08A81882F90E0A90102C0559503
:101EF00047958A95E2F7CA018170EB81FC81808366
:101F00003BC0E6E3F0E08081282F30E08A81882F13
:101F100090E0A90102C0559547958A95E2F7CA015C
:101F20008170EB81FC81808327C0E3E3F0E0808156
:101F3000282F30E08A81882F90E0A90102C05595B2
:101F400047958A95E2F7CA018170EB81FC81808315
:101F500013C0E0E3F0E08081282F30E08A81882FF1
:101F600090E0A90102C0559547958A95E2F7CA010C
:101F70008170EB81FC81808326960FB6F894DEBFDA
:101F80000FBECDBFCF91DF910895DF93CF93CDB733
:101F9000DEB7AFE5B0E0EFE5F0E0808180688C93DC
:101FA000CF91DF910895DF93CF93CDB7DEB7AFE543
:101FB000B0E0EFE5F0E080818F778C93CF91DF91F7
:101FC0000895DF93CF93CDB7DEB78BEA92E020E69A
:101FD00030E0B90144E050E00E94331D85EB92E00F
:101FE00024E630E0B90145E050E00E94331D8FEB5C
:101FF00092E029E630E0B90145E050E00E94331D4F
:1020000089EC92E02EE630E0B90145E050E00E9414
:10201000331D83ED92E023E730E0B90146E050E064
:102020000E94331D8DED92E029E730E0B90145E0D3
:1020300050E00E94331D87EE92E02EE730E0B901B8
:1020400045E050E00E94331D81EF92E023E830E04C
:10205000B90145E050E00E94331DCF91DF91089512
:10206000DF93CF93CDB7DEB76E970FB6F894DEBF90
:102070000FBECDBF0E943B0C88E890E00E94C90AC9
:1020800081E060E00E94F20A87E990E00E94C90ABC
:1020900080E090E0AAE7B4E4898F9A8FAB8FBC8F81
:1020A000698D7A8D8B8D9C8D20E030E04AEF54E471
:1020B0000E941F02DC01CB018D8B9E8BAF8BB88FF2
:1020C0006D897E898F89988D20E030E040E85FE35C
:1020D0000E94250488232CF481E090E09C8B8B8B5C
:1020E0003FC06D897E898F89988D20E03FEF4FE753
:1020F00057E40E94C50318164CF5698D7A8D8B8DB7
:102100009C8D20E030E040E251E40E941F02DC019F
:10211000CB01BC01CD010E944900DC01CB019C8BAD
:102120008B8B0FC088EC90E09A8B898B89899A8978
:102130000197F1F79A8B898B8B899C8901979C8BEE
:102140008B8B8B899C89009769F714C06D897E8978
:102150008F89988D0E944900DC01CB019C8B8B8B71
:102160008B899C89988B8F878F8598890197F1F748
:10217000988B8F870E944E168093A8028091A802A8
:102180008F3FC1F38091A802282F30E03E8F2D8F22
:102190008D8D9E8D8233910551F12D8D3E8D233392
:1021A000310534F48D8D9E8D8133910561F05BC0D6
:1021B0002D8D3E8D2333310571F18D8D9E8D8433B0
:1021C0009105E9F150C00E943B0C88EA90E00E9422
:1021D000C90A85EB92E00E94C8118093A702809102
:1021E000A702882309F4B9C00E942B13B6C00E942D
:1021F0003B0C83EB90E00E94C90A89EC92E00E94BC
:10220000C8118093A7028091A702882309F4A5C072
:102210000E942B13A2C00E943B0C8FEB90E00E9407
:10222000C90A8DED92E00E94C8118093A7028091A7
:10223000A702882309F491C00E942B138EC00E942C
:102240003B0C8CEC90E00E94C90A81EF92E00E9466
:10225000C8118093A7028091A702882309F47DC04A
:102260000E942B137AC00E943B0C88ED90E00E94E4
:10227000C90A80E090E0AAE7B4E48B879C87AD8729
:10228000BE876B857C858D859E8520E030E04AEF9A
:1022900054E40E941F02DC01CB018F839887A98739
:1022A000BA876F81788589859A8520E030E040E89B
:1022B0005FE30E94250488232CF481E090E09E8354
:1022C0008D833FC06F81788589859A8520E03FEFB7
:1022D0004FE757E40E94C50318164CF56B857C85C3
:1022E0008D859E8520E030E040E251E40E941F028F
:1022F000DC01CB01BC01CD010E944900DC01CB0116
:102300009E838D830FC088EC90E09C838B838B81B0
:102310009C810197F1F79C838B838D819E8101972E
:102320009E838D838D819E81009769F714C06F8194
:10233000788589859A850E944900DC01CB019E83BE
:102340008D838D819E819A83898389819A8101976A
:10235000F1F79A8389830E9430106E960FB6F89435
:10236000DEBF0FBECDBFCF91DF910895DF93CF9336
:10237000CDB7DEB70E94E5080E941B160E94C61664
:102380000E94FC0685E00E94D717CF91DF91089547
:10239000DF93CF93CDB7DEB7A2970FB6F894DEBF29
:1023A0000FBECDBF99A388A381E060E00E94F20A2E
:1023B00087EE90E00E94C90A1F8E1E8E16C01D8EE9
:1023C0000E944E168D8F8D8D8F3FD1F38E8D9F8DF8
:1023D000FC01ED58FC4F8D8D80838AE20E944708F6
:1023E0008E8D9F8D01969F8F8E8F8E8D9F8D8430C9
:1023F00091052CF31092770381E08093A20283E78A
:1024000093E028A139A1B9010E943C1D009749F42D
:1024100081E08093A30285E00E94DC1681E08AA31C
:1024200010C18091A602833009F089C00E943B0C44
:102430008CEE90E00E94C90A81E060E00E94F20AFE
:102440008AEF90E00E94C90A80E090E4ACE1B6E433
:10245000898F9A8FAB8FBC8F698D7A8D8B8D9C8D78
:1024600020E030E04AEF54E40E941F02DC01CB017F
:102470008D8B9E8BAF8BB88F6D897E898F89988D60
:1024800020E030E040E85FE30E94250488232CF43C
:1024900081E090E09C8B8B8B3FC06D897E898F891A
:1024A000988D20E03FEF4FE757E40E94C5031816D0
:1024B0004CF5698D7A8D8B8D9C8D20E030E040E26B
:1024C00051E40E941F02DC01CB01BC01CD010E943E
:1024D0004900DC01CB019C8B8B8B0FC088EC90E01A
:1024E0009A8B898B89899A890197F1F79A8B898BC5
:1024F0008B899C8901979C8B8B8B8B899C890097FE
:1025000069F714C06D897E898F89988D0E94490072
:10251000DC01CB019C8B8B8B8B899C89988B8F8763
:102520008F8598890197F1F7988B8F870E942007F4
:102530001092A2021092A6020E94301081C00E9446
:102540003B0C8AE091E00E94C90A80E090E0AAEF8B
:10255000B3E48B879C87AD87BE876B857C858D8533
:102560009E8520E030E04AEF54E40E941F02DC0127
:10257000CB018F839887A987BA876F8178858985F2
:102580009A8520E030E040E85FE30E94250488233C
:102590002CF481E090E09E838D833FC06F8178852D
:1025A00089859A8520E03FEF4FE757E40E94C503F5
:1025B00018164CF56B857C858D859E8520E030E076
:1025C00040E251E40E941F02DC01CB01BC01CD01BD
:1025D0000E944900DC01CB019E838D830FC088ECF3
:1025E00090E09C838B838B819C810197F1F79C8386
:1025F0008B838D819E8101979E838D838D819E81AA
:10260000009769F714C06F81788589859A850E9443
:102610004900DC01CB019E838D838D819E819A834D
:10262000898389819A810197F1F79A83898310922E
:10263000A2028091A6028F5F8093A6020E943010B2
:102640001AA28AA1A2960FB6F894DEBF0FBECDBF24
:10265000CF91DF9108950F931F93DF93CF93CDB761
:10266000DEB7C954D0400FB6F894DEBF0FBECDBF61
:10267000FE01E95BFF4F10820E943B0C86E191E076
:102680000E94C90A81E060E00E94F20A86E291E0BD
:102690000E94C90A0E944E16FE01E95BFF4F80832B
:1026A000FE01E95BFF4F80818F3FA1F3FE01E95BF3
:1026B000FF4F8081282F30E02A963FAF2EAF2A9718
:1026C0002A968EAD9FAD2A978233910509F42FC1CA
:1026D0002A96EEADFFAD2A97E333F10509F42BC23C
:1026E0002A962EAD3FAD2A972133310509F026C237
:1026F0000E943B0C8091A402882309F096C081E0DF
:102700008093A40287E00E94DC1685E06AE50E94BF
:10271000041882E391E00E94C90AFE01ED5BFF4FBD
:1027200080E090E0AAEFB3E480839183A283B38337
:102730008E01015C1F4FFE01ED5BFF4F60817181D7
:102740008281938120E030E04AEF54E40E941F022E
:10275000DC01CB01F80180839183A283B383FE0166
:10276000FF96608171818281938120E030E040E8B2
:102770005FE30E94250488232CF481E090E09EAF63
:102780008DAF46C0FE01FF96608171818281938189
:1027900020E03FEF4FE757E40E94C503181664F5A9
:1027A000FE01ED5BFF4F608171818281938120E0AA
:1027B00030E040E251E40E941F02DC01CB01BC0189
:1027C000CD010E944900DC01CB019EAF8DAF0FC04F
:1027D00088EC90E09CAF8BAF8BAD9CAD0197F1F78F
:1027E0009CAF8BAF8DAD9EAD01979EAF8DAF8DAD84
:1027F0009EAD009769F716C0FE01FF96608171815A
:10280000828193810E944900DC01CB019EAF8DAF94
:102810008DAD9EAD9AAF89AF89AD9AAD0197F1F7B5
:102820009AAF89AF0E942B1335CF1092A40287E094
:102830000E94001785E066EA0E94041880E491E097
:102840000E94C90A80E090E0AAEFB3E48DAB9EAB92
:10285000AFABB8AF6DA97EA98FA998AD20E030E0ED
:102860004AEF54E40E941F02DC01CB0189AB9AAB12
:10287000ABABBCAB69A97AA98BA99CA920E030E0DD
:1028800040E85FE30E94250488232CF481E090E077
:1028900098AB8FA73FC069A97AA98BA99CA920E012
:1028A0003FEF4FE757E40E94C50318164CF56DA99A
:1028B0007EA98FA998AD20E030E040E251E40E946B
:1028C0001F02DC01CB01BC01CD010E944900DC01EB
:1028D000CB0198AB8FA70FC088EC90E09EA78DA787
:1028E0008DA59EA50197F1F79EA78DA78FA598A905
:1028F000019798AB8FA78FA598A9009769F714C087
:1029000069A97AA98BA99CA90E944900DC01CB0185
:1029100098AB8FA78FA598A99CA78BA78BA59CA5E3
:102920000197F1F79CA78BA70E942B13B3CE0E94AF
:102930003B0C8091A502882309F07FC081E0809341
:10294000A50286E00E94DC168EE491E00E94C90A8E
:1029500080E090E0AAEFB3E48FA398A7A9A7BAA755
:102960006FA178A589A59AA520E030E04AEF54E44C
:102970000E941F02DC01CB018BA39CA3ADA3BEA3CD
:102980006BA17CA18DA19EA120E030E040E85FE337
:102990000E94250488232CF481E090E09AA389A367
:1029A0003FC06BA17CA18DA19EA120E03FEF4FE72E
:1029B00057E40E94C50318164CF56FA178A589A5A8
:1029C0009AA520E030E040E251E40E941F02DC01C1
:1029D000CB01BC01CD010E944900DC01CB019AA3CF
:1029E00089A30FC088EC90E098A38F8F8F8D98A15A
:1029F0000197F1F798A38F8F89A19AA101979AA3C4
:102A000089A389A19AA1009769F714C06BA17CA141
:102A10008DA19EA10E944900DC01CB019AA389A34C
:102A200089A19AA19E8F8D8F8D8D9E8D0197F1F733
:102A30009E8F8D8F0E942B132DCE1092A50286E0C3
:102A40000E94001789E591E00E94C90A80E090E0A9
:102A5000AAEFB3E4898F9A8FAB8FBC8F698D7A8D83
:102A60008B8D9C8D20E030E04AEF54E40E941F02E1
:102A7000DC01CB018D8B9E8BAF8BB88F6D897E89EE
:102A80008F89988D20E030E040E85FE30E942504C4
:102A900088232CF481E090E09C8B8B8B3FC06D8968
:102AA0007E898F89988D20E03FEF4FE757E40E94A1
:102AB000C50318164CF5698D7A8D8B8D9C8D20E0A1
:102AC00030E040E251E40E941F02DC01CB01BC0176
:102AD000CD010E944900DC01CB019C8B8B8B0FC088
:102AE00088EC90E09A8B898B89899A890197F1F714
:102AF0009A8B898B8B899C8901979C8B8B8B8B897B
:102B00009C89009769F714C06D897E898F89988D9B
:102B10000E944900DC01CB019C8B8B8B8B899C89AB
:102B2000988B8F878F8598890197F1F7988B8F877E
:102B30000E942B13AFCD0E943010ACCD0E943B0CF5
:102B400085E691E00E94C90A80E090E0AAEFB3E434
:102B50008B879C87AD87BE876B857C858D859E85A1
:102B600020E030E04AEF54E40E941F02DC01CB0178
:102B70008F839887A987BA876F81788589859A8599
:102B800020E030E040E85FE30E94250488232CF435
:102B900081E090E09E838D833FC06F817885898539
:102BA0009A8520E03FEF4FE757E40E94C5031816CF
:102BB0004CF56B857C858D859E8520E030E040E27C
:102BC00051E40E941F02DC01CB01BC01CD010E9437
:102BD0004900DC01CB019E838D830FC088EC90E01F
:102BE0009C838B838B819C810197F1F79C838B83E2
:102BF0008D819E8101979E838D838D819E8100971B
:102C000069F714C06F81788589859A850E9449008B
:102C1000DC01CB019E838D838D819E819A83898384
:102C200089819A810197F1F79A8389830E943B0CED
:102C30000E942B132FCDDF93CF93CDB7DEB782E069
:102C400060E041E00E94C70C82E061E041E00E9448
:102C5000C70C82E062E041E00E94C70C82E063E0C2
:102C600041E00E94C70C82E064E040E00E94C70C93
:102C700082E065E040E00E94C70C82E066E040E050
:102C80000E94C70C82E067E040E00E94C70C82E02F
:102C90006FEF0E94860CCF91DF910895DF93CF9361
:102CA00000D000D00F92CDB7DEB78FEF8B831A82A2
:102CB0005EC08A81882F90E0FC01E356FD4F908131
:102CC00082E0692F40E00E94C70D19823DC08981D2
:102CD000882F90E0FC01E756FD4F90819E012C5F0C
:102CE0003F4F82E0692FA9010E94410F8C81882308
:102CF00041F58981482F50E08A81282F30E0CA01B0
:102D0000880F991F880F991F820F931FFC01E757A7
:102D1000FD4F80818B830FC08981882F90E0FC015B
:102D2000E756FD4F90819E012C5F3F4F82E0692F57
:102D3000A9010E94410F8C81882371F38B818D83BF
:102D40001CC089818F5F89838981843008F4BFCF5B
:102D50008A81882F90E0FC01E356FD4F908182E04C
:102D6000692F41E00E94C70D8A818F5F8A838A8123
:102D7000843008F49ECF8B818D838D810F900F90CE
:102D80000F900F900F90CF91DF910895DF93CF9325
:102D9000CDB7DEB781E065E041E00E94C70C81E07D
:102DA00066E041E00E94C70C81E067E041E00E94DC
:102DB000C70CCF91DF910895DF93CF930F92CDB7DA
:102DC000DEB789838981853031F481E065E041E0B7
:102DD0000E94C70D11C08981863031F481E066E020
:102DE00041E00E94C70D08C08981873029F481E045
:102DF00067E041E00E94C70D0F90CF91DF910895E9
:102E0000DF93CF930F92CDB7DEB789838981853069
:102E100031F481E065E040E00E94C70D11C0898176
:102E2000863031F481E066E040E00E94C70D08C0C2
:102E30008981873029F481E067E040E00E94C70D76
:102E40000F90CF91DF910895AF92BF92CF92DF9212
:102E5000EF92FF920F931F93DF93CF93CDB7DEB71F
:102E6000A4970FB6F894DEBF0FBECDBF6D8B7E8BDF
:102E70008F8B988F298F3A8F4B8F5C8FED8EFE8EC4
:102E80000F8F18A3A9A2BAA2CBA2DCA2298D3A8DDA
:102E90004B8D5C8D8D899E89AF89B88D79018A01B2
:102EA000E81AF90A0A0B1B0BD801C701898B9A8B08
:102EB000AB8BBC8B29A13AA14BA15CA18D8D9E8DC2
:102EC000AF8DB8A179018A01E81AF90A0A0B1B0B28
:102ED000D801C7018D879E87AF87B88B29A93AA9EA
:102EE0004BA95CA98D899E89AF89B88D79018A012A
:102EF000E81AF90A0A0B1B0BD801C70189879A87C0
:102F0000AB87BC8769857A858B859C850E94550433
:102F10007B018C0169897A898B899C890E9455047F
:102F20009B01AC01C801B7010E941903DC01CB0170
:102F30008D839E83AF83B8876D857E858F859889C5
:102F40000E945504DC01CB01BC01CD012D813E81E5
:102F50004F8158850E941F02DC01CB01BC01CD01CD
:102F60000E94B3049B01AC018D8D9E8DAF8DB8A1E5
:102F7000820F931FA41FB51F89839A83AB83BC83E1
:102F800089819A81AB81BC81BC01CD01A4960FB629
:102F9000F894DEBF0FBECDBFCF91DF911F910F918F
:102FA000FF90EF90DF90CF90BF90AF900895DF93A8
:102FB000CF930F92CDB7DEB789830E94C50F0E94D1
:102FC0005C1B0E94AA1B82E00E94B81B0E948F1803
:102FD00082E00E94251980E29EE40E944B1A8981BA
:102FE000843031F483E064E041E00E94C70C08C003
:102FF0008981853029F483E065E041E00E94C70CB7
:103000000F90CF91DF910895AF92BF92CF92DF9250
:10301000EF92FF920F931F93DF93CF9300D0CDB722
:10302000DEB789836A8389818530A9F58A81882FF3
:1030300090E0A0E0B0E000D000D0EDB7FEB7319650
:1030400080839183A283B38360E070E080E090E0AE
:1030500024EB30E040E050E00F2EF6E2EF2EF2E0FD
:10306000FF2EF0E00F2FF0E01F2FF02D0F2EF8E2D3
:10307000AF2EFAE0BF2EF0E0CF2EF0E0DF2EF02DE5
:103080000E9424170F900F900F900F90DC01CB013E
:103090000E941D1A37C089818430A1F58A81882F4A
:1030A00090E0A0E0B0E000D000D0EDB7FEB73196E0
:1030B00080839183A283B38360E070E080E090E03E
:1030C00024EB30E040E050E00F2EF6E2EF2EF2E08D
:1030D000FF2EF0E00F2FF0E01F2FF02D0F2EF8E263
:1030E000AF2EFAE0BF2EF0E0CF2EF0E0DF2EF02D75
:1030F0000E9424170F900F900F900F90DC01CB01CE
:103100000E941D1A0F900F90CF91DF911F910F9188
:10311000FF90EF90DF90CF90BF90AF900895DF9336
:10312000CF93CDB7DEB7AFE4B0E0EFE4F0E080815D
:103130008E7F8C93AFE4B0E0EFE4F0E080818260BA
:103140008C93AEE4B0E0EEE4F0E0808188608C9394
:10315000AEE4B0E0EEE4F0E0808180618C93AFE417
:10316000B0E0EFE4F0E080818F7B8C93AFE4B0E0DF
:10317000EFE4F0E0808180688C93AFE4B0E0EFE4AE
:10318000F0E080818F7E8C93AFE4B0E0EFE4F0E07C
:10319000808180628C93AEE4B0E0EEE4F0E0808168
:1031A000887F8C93A9E5B0E0E9E5F0E080818B7F32
:1031B0008C93A9E5B0E0E9E5F0E08081877F8C930E
:1031C000A9E5B0E0E9E5F0E080818F7E8C93A9E588
:1031D000B0E0E9E5F0E080818F7D8C93A8E5B0E078
:1031E000E8E5F0E0808184608C93A8E5B0E0E8E554
:1031F000F0E0808188608C93A8E5B0E0E8E5F0E03D
:10320000808180618C93A8E5B0E0E8E5F0E0808102
:1032100080628C93EAE4F0E01082EBE4F0E010824C
:10322000E8E4F0E01082E9E4F0E01082ECE4F0E0A1
:103230001082EDE4F0E01082E6E4F0E01082E7E4D2
:10324000F0E01082CF91DF910895DF93CF930F923A
:10325000CDB7DEB78983AEE4B0E0EEE4F0E0808184
:10326000887F8C93AEE4B0E0EEE4F0E08081982FAC
:1032700089818770892B8C930F90CF91DF9108956E
:10328000DF93CF93CDB7DEB7AEE4B0E0EEE4F0E08D
:103290008081887F8C93CF91DF910895DF93CF93C6
:1032A000CDB7DEB7A9E5B0E0E9E5F0E08081846064
:1032B0008C93CF91DF910895DF93CF93CDB7DEB795
:1032C000A9E5B0E0E9E5F0E080818B7F8C93CF91B8
:1032D000DF910895DF93CF93CDB7DEB7A9E5B0E0D6
:1032E000E9E5F0E0808180618C93CF91DF910895D2
:1032F000DF93CF93CDB7DEB7A9E5B0E0E9E5F0E025
:1033000080818F7E8C93CF91DF910895DF93CF934F
:10331000CDB7DEB7A9E5B0E0E9E5F0E080818860EF
:103320008C93CF91DF910895DF93CF93CDB7DEB724
:10333000A9E5B0E0E9E5F0E08081877F8C93CF914B
:10334000DF910895DF93CF93CDB7DEB7A9E5B0E065
:10335000E9E5F0E0808180628C93CF91DF91089560
:10336000DF93CF93CDB7DEB7A9E5B0E0E9E5F0E0B4
:1033700080818F7D8C93CF91DF910895DF93CF93E0
:1033800000D0CDB7DEB79A83898389819A819093E3
:103390007D0380937C030F900F90CF91DF91089570
:1033A000DF93CF9300D0CDB7DEB79A83898389812D
:1033B0009A8190937F0380937E030F900F90CF911B
:1033C000DF910895DF93CF9300D0CDB7DEB79A8316
:1033D000898389819A8190937903809378030F90F0
:1033E0000F90CF91DF910895DF93CF9300D0CDB7A9
:1033F000DEB79A83898389819A8190937B03809336
:103400007A030F900F90CF91DF910895DF93CF93C0
:1034100000D0CDB7DEB79A838983ECE4F0E08981F0
:103420008083EDE4F0E089819A81892F9927808358
:103430000F900F90CF91DF910895DF93CF9300D03D
:10344000CDB7DEB79A838983EAE4F0E0898180838F
:10345000EBE4F0E089819A81892F992780830F908E
:103460000F90CF91DF910895DF93CF9300D0CDB728
:10347000DEB79A838983E8E4F0E089818083E9E418
:10348000F0E089819A81892F992780830F900F908E
:10349000CF91DF910895DF93CF9300D0CDB7DEB702
:1034A0009A838983E6E4F0E089819A81918380831D
:1034B0000F900F90CF91DF910895DF93CF9300D0BD
:1034C000CDB7DEB7EDE4F0E08081882F90E09A83FD
:1034D000898389819A81982F88279A838983ECE44C
:1034E000F0E08081282F30E089819A81822B932B14
:1034F0009A83898389819A810F900F90CF91DF9170
:1035000008951F920F920FB60F9211242F933F939D
:103510004F935F936F937F938F939F93AF93BF93DB
:10352000EF93FF93DF93CF93CDB7DEB7E0917C03AA
:10353000F0917D030995CF91DF91FF91EF91BF91BC
:10354000AF919F918F917F916F915F914F913F913B
:103550002F910F900FBE0F901F9018951F920F92F2
:103560000FB60F9211242F933F934F935F936F9356
:103570007F938F939F93AF93BF93EF93FF93DF93CB
:10358000CF93CDB7DEB7E0917E03F0917F0309952D
:10359000CF91DF91FF91EF91BF91AF919F918F916B
:1035A0007F916F915F914F913F912F910F900FBE3F
:1035B0000F901F9018951F920F920FB60F92112423
:1035C0002F933F934F935F936F937F938F939F932B
:1035D000AF93BF93EF93FF93DF93CF93CDB7DEB756
:1035E000E0917803F09179030995CF91DF91FF91F4
:1035F000EF91BF91AF919F918F917F916F915F916B
:103600004F913F912F910F900FBE0F901F901895E3
:103610001F920F920FB60F9211242F933F934F9347
:103620005F936F937F938F939F93AF93BF93EF932A
:10363000FF93DF93CF93CDB7DEB7E0917A03F0919C
:103640007B030995CF91DF91FF91EF91BF91AF91EE
:103650009F918F917F916F915F914F913F912F91AA
:103660000F900FBE0F901F901895DF93CF93CDB79B
:10367000DEB7E6E4F0E080819181CF91DF9108959B
:10368000DF93CF93CDB7DEB7AEE4B0E0EEE4F0E089
:10369000808180648C93CF91DF910895DF93CF93E5
:1036A000CDB7DEB7AEE4B0E0EEE4F0E080818F7B32
:1036B0008C93CF91DF910895DF93CF93CDB7DEB791
:1036C000A3E5B0E0E3E5F0E080818F7B8C93A3E598
:1036D000B0E0E3E5F0E08081877F8C93A3E5B0E084
:1036E000E3E5F0E080818F7E8C93A3E5B0E0E3E535
:1036F000F0E080818F7D8C93CF91DF910895DF93EF
:10370000CF9300D00F92CDB7DEB79B838A83198207
:103710008A819B81009739F08A819B819093AA02CC
:103720008093A90202C082E0898389810F900F9063
:103730000F90CF91DF910895DF93CF930F92CDB784
:10374000DEB78983ECE5F0E0898180830F90CF912B
:10375000DF910895DF93CF93CDB7DEB7A9E5B0E051
:10376000E9E5F0E0808181608C93CF91DF9108954D
:10377000DF93CF930F92CDB7DEB78983A3E5B0E097
:10378000E3E5F0E08081887F8C93A3E5B0E0E3E59A
:10379000F0E090818981892B8C930F90CF91DF91FC
:1037A0000895DF93CF930F92CDB7DEB78983E2E51B
:1037B000F0E0898180830F90CF91DF9108951F926F
:1037C0000F920FB60F9211242F933F934F935F9355
:1037D0006F937F938F939F93AF93BF93EF93FF93D9
:1037E000DF93CF93CDB7DEB78091A9029091AA0263
:1037F000009729F0E091A902F091AA020995CF91D2
:10380000DF91FF91EF91BF91AF919F918F917F9148
:103810006F915F914F913F912F910F900FBE0F903D
:103820001F9018951F920F920FB60F9211242F938D
:103830003F934F935F936F937F938F939F93AF9338
:10384000BF93EF93FF93DF93CF93CDB7DEB7809114
:10385000A9029091AA02009729F0E091A902F091A3
:10386000AA020995CF91DF91FF91EF91BF91AF919E
:103870009F918F917F916F915F914F913F912F9188
:103880000F900FBE0F901F901895DF93CF93CDB779
:10389000DEB72E970FB6F894DEBF0FBECDBF81E026
:1038A0006FEF0E94450C80E06FEF0E94450C82E0B4
:1038B0006FEF0E94450C0E94B6110E94E10F84E751
:1038C00091E00E94C90A80E090E0AAE7B4E48B8707
:1038D0009C87AD87BE876B857C858D859E8520E026
:1038E00030E04AEF54E40E941F02DC01CB018F83D9
:1038F0009887A987BA876F81788589859A8520E01E
:1039000030E040E85FE30E94250488232CF481E046
:1039100090E09E838D833FC06F81788589859A85ED
:1039200020E03FEF4FE757E40E94C50318164CF51F
:103930006B857C858D859E8520E030E040E251E4FA
:103940000E941F02DC01CB01BC01CD010E94490095
:10395000DC01CB019E838D830FC088EC90E09C83BB
:103960008B838B819C810197F1F79C838B838D8165
:103970009E8101979E838D838D819E81009769F73B
:1039800014C06F81788589859A850E944900DC0181
:10399000CB019E838D838D819E819A8389838981CA
:1039A0009A810197F1F79A8389830E943B0C0E94C8
:1039B0003010FDCFA1E21A2EAA1BBB1BFD010DC0CA
:1039C000AA1FBB1FEE1FFF1FA217B307E407F507CF
:1039D00020F0A21BB30BE40BF50B661F771F881FAB
:1039E000991F1A9469F760957095809590959B0141
:1039F000AC01BD01CF0108952F923F924F925F928B
:103A00006F927F928F929F92AF92BF92CF92DF92EE
:103A1000EF92FF920F931F93CF93DF93CDB7DEB753
:103A2000CA1BDB0B0FB6F894DEBF0FBECDBF0994E7
:103A30002A88398848885F846E847D848C849B843E
:103A4000AA84B984C884DF80EE80FD800C811B814C
:103A5000AA81B981CE0FD11D0FB6F894DEBF0FBE7B
:103A6000CDBFED010895FB01DC0102C001900D9274
:103A700041505040D8F70895FB01DC018D91019031
:0E3A800080190110D9F3990B0895F894FFCF27
:103A8E0049544900303030300048656261003132AF
:103A9E003334004C61696C610035363738004F6D38
:103AAE006172003737373700312D4954492E203295
:103ABE002D486562612E00332D4C61696C612E209C
:103ACE00342D4F6D61722E0048656C6C6F20495419
:103ADE00492E0048656C6C6F20486562612E004867
:103AEE00656C6C6F204C61696C612E0048656C6C66
:103AFE006F204F6D61722E00496E76616C69642085
:103B0E0043686F6963650050494E3A00596F7520DE
:103B1E0068617665206265656E00626C6F636B65C9
:103B2E006420666F722031307300496E76616C6965
:103B3E00642050494E00312D4C6F636B2E20322D78
:103B4E004C6967687400332D75736572206D656EF0
:103B5E007500446F6F72206F70656E65642E200065
:103B6E00446F6F7220636C6F7365642E20004C6916
:103B7E0067687473204F4E2E004C6967687473200B
:103B8E004F46462E00496E76616C6964206F7074E4
:103B9E00696F6E00486F7573652053797374656D28
:103BAE0000000000000000000000010202030303F9
:103BBE0003040404040404040405050505050505B1
:103BCE000505050505050505050606060606060690
:103BDE000606060606060606060606060606060677
:103BEE000606060606060606060707070707070760
:103BFE000707070707070707070707070707070747
:103C0E000707070707070707070707070707070736
:103C1E000707070707070707070707070707070726
:103C2E00070707070707070707080808080808080F
:103C3E0008080808080808080808080808080808F6
:103C4E0008080808080808080808080808080808E6
:103C5E0008080808080808080808080808080808D6
:103C6E0008080808080808080808080808080808C6
:103C7E0008080808080808080808080808080808B6
:103C8E0008080808080808080808080808080808A6
:103C9E000808080808080808080808080808080896
:103CAE000808080808080808083738392F34353648
:103CBE002A3132332D43303D2B0405060700010215
:023CCE000300F1
:00000001FF
